S01700004763634170706C69636174696F6E312E737265635B
S11300000C942A000C9434000C9434000C943400A6
S11300100C9434000C9434000C9434000C9434008C
S11300200C9434000C9434000C9434000C9434007C
S11300300C9434000C9434000C9434000C9434006C
S11300400C9434000C9434000C9434000C9434005C
S11300500C94340011241FBECFE5D4E0DEBFCDBF25
S11300600E9436000C946F000C9400008FEF8ABB42
S11300708BBB17BA81E088BB87EE8BBB83E090E033
S11300809923D4F36BB321E030E0A901082E02C018
S1130090440F551F0A94E2F7542F509556235BBB27
S11300A05BB367E070E0681B790B02C0220F331F5B
S11300B06A95E2F7322F309535233BBB6FEF73EC33
S11300C0E9E061507040E040E1F700C000003BB35C
S11300D0432B4BBB3BB3232B2BBB0197D1CFF894C2
S10500E0FFCF4C
S9030000FC
