:100000000C942A000C9447000C9447000C94470071
:100010000C9447000C9447000C9447000C94470044
:100020000C9447000C9447000C9447000C94470034
:100030000C9447000C9447000C9447000C94470024
:100040000C9447000C9447000C941A010C94470040
:100050000C94470011241FBECFE5D4E0DEBFCDBF16
:1000600010E0A0E6B0E0EAE7F2E002C005900D92F1
:10007000AA36B107D9F720E0AAE6B0E001C01D9288
:10008000AC36B207E1F70E94D4000C943B010C940B
:10009000000081E08BBB2FEF43EC89E02150404012
:1000A0008040E1F700C0000020E030E0273031055B
:1000B0007CF48BB3880F8BBB9FEF43EC89E09150AE
:1000C00040408040E1F700C000002F5F3F4FEECF7F
:1000D00008951BBA2FEF43EC89E021504040804047
:1000E000E1F700C0000020E030E02430310524F5C5
:1000F0006BB381E090E0AC01022E02C0440F551FAB
:100100000A94E2F7462B4BBB6BB347E050E0421B2F
:10011000530B02C0880F991F4A95E2F7862B8BBBC1
:100120009FEF43EC89E0915040408040E1F700C0F0
:1001300000002F5F3F4FD9CF08951BBA2FEF83ECFC
:1001400099E0215080409040E1F700C0000024E099
:1001500030E0121613063CF5EBB3B901615071099A
:1001600081E090E0AC01062E02C0440F551F0A94B6
:10017000E2F74E2B4BBBEBB348E050E0DA01A21B99
:10018000B30B02C0880F991FAA95E2F78E2B8BBB89
:10019000BFEF23EC89E0B15020408040E1F700C080
:1001A00000009B01D6CF08958FEF8ABB87BB84BB2D
:1001B00081BB8BBB88BB85BB12BA8BB780628BBF00
:1001C00084B7806484BF789480916A0090916B00BA
:1001D000892B59F4E0916A00F0916B00EF59FF4FC1
:1001E000808182BB0E944900EFCF80916A0090918C
:1001F0006B00019759F4E0916A00F0916B00EF59A0
:10020000FF4F808182BB0E946900DECF80916A002F
:1002100090916B00029759F4E0916A00F0916B00A5
:10022000EF59FF4F808182BB0E949D00CDCF80E0BF
:1002300090E008951F920F920FB60F9211248F93A2
:100240009F9380916A0090916B00019690936B0050
:1002500080936A0080916A0090916B00039724F06C
:1002600010926B0010926A009F918F910F900FBEB9
:0A0270000F901F901895F894FFCF2F
:0A027A003F065B4F666D7D077F6F46
:00000001FF
